:020000040800F2
:100000001807002099020008FD180008C51600080E
:10001000F9180008CD0600080D1B000800000000BC
:1000200000000000000000000000000005190008AA
:10003000D106000800000000011900080919000895
:10004000B3020008B3020008B3020008B3020008BC
:10005000B3020008B3020008B3020008B3020008AC
:10006000B3020008B3020008B3020008B30200089C
:10007000B3020008B3020008B3020008B30200088C
:10008000B3020008B3020008B3020008B30200087C
:10009000B3020008B3020008B3020008B30200086C
:1000A000B3020008B3020008B3020008B30200085C
:1000B000B3020008B3020008B3020008B30200084C
:1000C000B3020008B3020008B3020008B30200083C
:1000D000B3020008B3020008B3020008B30200082C
:1000E000D5060008B3020008B3020008B3020008F6
:1000F000B3020008B3020008B3020008B30200080C
:10010000B3020008B3020008B3020008B3020008FB
:10011000B3020008B3020008B3020008B3020008EB
:10012000B3020008B3020008B3020008B3020008DB
:10013000B30200080000000000000000B302000845
:10014000B3020008B3020008B3020008B3020008BB
:10015000B3020008B3020008B3020008B3020008AB
:10016000B3020008B3020008B3020008B30200089B
:10017000B3020008B3020008B30200080000000048
:1001800000000000B30200080000000000000000B2
:10019000B30200080000000000000000B3020008E5
:1001A000000000000000000000000000B302000892
:1001B000B3020008B3020008B3020008B30200084B
:1001C000B302000800F002F800F056F814A696E812
:1001D000000CB244B344DA4501D100F04DF8BAE85E
:1001E0000F000FA696E83000A5EB040504EB060708
:1001F000AAEB0704A7F101074FEA15154FEA3414DB
:10020000A4F10104AC4201D300F036F813F0010F61
:1002100018BFFB1A43F0010300F001F8DBE71847B1
:10022000C8320000E8320000103A24BF78C878C114
:10023000FAD8520724BF30C830C144BF04680C60EC
:1002400070470000704700000023002400250026AE
:10025000103A28BF78C1FBD8520728BF30C148BF29
:100260000B6070471FB503F08BF89DE8030000F0AA
:1002700019F91FBD10B510BD00F0A6F91146FFF722
:10028000F1FF01F045FC00F0C4F903B4FFF7F2FF01
:1002900003BC00F0F5F90000094880470948004711
:1002A000FEE7FEE7FEE7FEE7FEE7FEE7FEE7FEE726
:1002B000FEE7FEE704480549054A064B7047000083
:1002C000BD190008C501000818010020180700200A
:1002D000180300201803002070B5064600F0C6F889
:1002E000056806F10B0020F00704B4429CBF002013
:1002F00070BD2B466A68BAB11068A04210D304F1F1
:10030000080188423CBF5068586007D351681019F3
:1003100041601168091B016058601460101D70BDB8
:1003200013465268002AE7D12146284600F0A6F875
:100330000028DED170BD53EA020C00F069802DE97F
:10034000F04B4FF00006002B1FBFB3FA83F503FA02
:1003500005F424FA05F65E4012BF1643B2FA82F5A0
:1003600002FA05F4C5F120051EBF22FA05FC44EA95
:100370000C04203556EA044C4FEA144418BF641CA0
:100380004FF000084FF00009904271EB030C39D395
:10039000002919BFB1FA81F701FA07F6B0FA80F720
:1003A00000FA07F6C7F120071EBF20FA07FC46EA4D
:1003B0000C062037B6FBF4FCA7EB0507103F07F04F
:1003C0001F0BCBF120062CFA06F60CFA0BFB44BFF0
:1003D000B3460026202FA4BF5E464FF0000B5BEA19
:1003E000060C08BF4FF0010B19EB0B0948EB060890
:1003F000ABFB027C06FB02CC0BFB03CCC01B71EBFE
:100400000C01C1E70B46024641464846BDE8F08B69
:1004100013B5084318BF4FF0FF300146AFF300801B
:10042000BDE81C40704710B5431C02E010F8011BEA
:1004300071B18107FAD14FF0013202C88C1A8C4396
:1004400014EAC211F9D0C01A0A0603D0C01E10BDAA
:10045000C01A10BD0A0401D0801E10BD0902FCD0D4
:10046000401E10BD7047704770470000004870473D
:1004700018000020704770477047704738B5044631
:100480000A4600206946AFF30080002808BF38BD47
:1004900002460099204600F075F8012038BD012081
:1004A00000F08AB8F8B5AFF30080054600200C468E
:1004B0000C2000BF0646A819A0420DD93246694655
:1004C0000020AFF30080070008BF00F075F8009827
:1004D000A04218BF0546C419FFF7C8FF05600746CC
:1004E000F01D20F007004619284600F00AF8B44233
:1004F00008BFF8BDA21B31463868BDE8F84000F0DF
:1005000041B800210160416070470C20704770B510
:100510000446051FFFF7AAFF0068002C14BF4468BB
:1005200070BD002C18BFAC423CBF20466468F8D3B5
:1005300001680A18AA4218BF456003D12A68054617
:100540001144016028684119A1421CBF6C6070BD54
:100550006168696021680844286070BD10B500F0CA
:100560000DF8006810BD10B5044600F007F80460EF
:1005700010BD000000487047100000200048704780
:1005800010000020034640688C46002818BF8842AF
:100590003CBF03464068F8D318681844884207D027
:1005A0000CF1030020F00700001D411A521A014609
:1005B000081D0A60FFF7ABBF10B500F039F8BDE8C1
:1005C000104000F02FB870477546FFF7D3FFAE46D6
:1005D00005006946534620F00700854618B020B54F
:1005E000FFF768FEBDE820404FF000064FF000071F
:1005F0004FF000084FF0000BAC46ACE8C009ACE887
:10060000C009ACE8C009ACE8C00921F007018D467B
:10061000704710B50446AFF300802046BDE8104097
:10062000FFF733BE002801D000F02AB87047000061
:1006300010B5012805D0002103A000F027F8012003
:1006400010BD09A1F8E7000053494752544D454DEC
:100650003A204F7574206F662068656170206D6563
:100660006D6F7279000000003A2048656170206D5E
:10067000656D6F727920636F727275707465640056
:1006800001491820ABBEFEE72600020070B5054602
:100690000C460A2000E06D1C00F011F835B12878F6
:1006A0000028F8D102E0641C00F009F814B12078A9
:1006B0000028F8D1BDE870400A20AFF3008008B5EB
:1006C00069468DF800000320ABBE08BDFEE70000C0
:1006D0007047000043F61440C4F201000068800433
:1006E00014D580B540F20040C4F20200012100F0B0
:1006F0009FF940F20C00C2F2000001780131CAB249
:10070000072A08BF01210170BDE880404FF4005066
:1007100000F0B2B84379012B4FF0020320D010B59E
:100720000371036802F0100ED3F800C0D1E9001481
:1007300040F6FE7202FA0EF221432CEA020201FA9E
:100740000EF111431960C0211A6801FA0EF122EA74
:10075000010119600121002301714371BDE81040BE
:1007600018467047002804BF0120704710B50446A2
:10077000007920B900206071204600F007F80220BF
:100780002071002001212061217110BD80B586B04B
:1007900047F200410068C4F200010022884205923D
:1007A000049201D006B080BD43F630000092C4F23E
:1007B0000200036943F000530361036903F000532F
:1007C0000093009B0092036843F0010303600068FC
:1007D00000F0010000900098102001900320CDE966
:1007E000020201F5C63001A900F052F806B080BD42
:1007F00081B04FF0000CCDF800C0006800290090D7
:100800000098104414BF1430083000900099002064
:100810000B6001B0704700004279012A4FF00202DC
:1008200026D010B50271026801F0100E4FF0010CD5
:1008300014680CFA0EF323431360D2F800C049B1D8
:100840003C230CF4701103FA0EF399420AD10221F1
:1008500005E000BF0CF03C013C2903D101215368A5
:10086000194351600121002201714271BDE810401D
:10087000104670477047000043F61441C4F201016E
:100880000A68024214BF08607047FFF7F3BF000018
:100890002DE9F04F82B000F13E4707F1FF77860562
:1008A00046EA972741F60006C4F20206072243F6FD
:1008B000004EB04208BF0622C4F2010E062F38BF18
:1008C0003A46002600274FF00008009209E000BFDA
:1008D00008F101080237B8F1100F06F1040600F024
:1008E000A3800D68012202FA08F415EA0409EFD08A
:1008F000D1F804B003220BF0030CACF10105BA40AF
:10090000012D6FEA020A0FD88268CD6802EA0A0256
:10091000BD402A4382604268A243CBF3001404FA2C
:1009200008F42243426005E0BCF1030F02D14FF00E
:10093000030C1EE0C2688C6802EA0A02BC40224333
:10094000BCF1020FC26014D16FF0030202EA580238
:100950000244D2F820C006F01C040F230D69A34006
:100960002CEA0303A5402B431362D1F804B00BF02B
:10097000030C02680CFA07F302EA0A021A431BF49A
:10098000403F0260A4D0002243F644030192C4F227
:1009900002031A684FF6084C42F480421A601A6843
:1009A000CFF6FF7C02F480420192019A28F0030204
:1009B000724452F80C3006F00C050F24AC40A343EF
:1009C000009C04FA05F52B4342F80C30DEF80820B1
:1009D0004B6842EA090543F60C4CDC0258BF22EA98
:1009E0000905CEF80850C4F2010CDCF800209C0286
:1009F00042EA090558BF22EA0905CCF80050DEF8A2
:100A000004209C0342EA090558BF22EA0905CEF8F2
:100A10000450DEF80020DB0342EA090558BF22EA51
:100A20000905CEF8005053E702B0BDE8F08F000092
:100A3000426902EA0103914341EA0341816170473F
:100A4000002A08BF090481617047000040F21410B9
:100A5000C2F200000068704740F2000040F214113A
:100A6000C2F20000C2F2000100780A681044086077
:100A70007047000080B543F60040C4F202000168F0
:100A800041F400710160016841F480610160016816
:100A900041F480710160032000F086F8002000F02E
:100AA00005F800F027F8002080BD000070B540F286
:100AB0000006C2F2000640F208013278C2F20001DC
:100AC0004FF47A730968B3FBF2F20446B1FBF2F11A
:100AD000084600F095FB0F2C4FF0010508D838B9F7
:100AE0004FF0FF3021460022002500F031F87460FD
:100AF000284670BD82B0002043F640010190C4F248
:100B000002014A6842F480424A604A6802F4804224
:100B10000192019A0090086840F0805008600868CF
:100B200000F080500090009802B07047002848BF45
:100B3000704700F01F01012202FA01F11C2202EAB3
:100B4000D0004EF20012CEF2000281507047000039
:100B500010B54EF60C5CCEF2000CDCF80030C3F39E
:100B6000022E8EF00704042C28BF0424BEF10303D8
:100B70004FF0FF3E0EFA04F438BF0023A143994022
:100B80000EFA03F39A43114300F00F0200F16043A1
:100B90000901043A03F564436244002848BF02F1A6
:100BA0000C03197010BD00004EF60C51CEF200017E
:100BB0000A684FF6FF031A4060F30A2242F0806091
:100BC00040F0FD7008607047002804BF01207047A6
:100BD0002DE9F04143F60808C4F202080446D8F8AB
:100BE000F8030D4600F00F00884207D288F8F8534A
:100BF000D8F8F80300F00F00A84277D120688107E9
:100C000017D5410705D5D8F8001041F4E051C8F8D0
:100C10000010010705D5D8F8001041F46041C8F86C
:100C20000010D8F80010A26821F0F0011143C8F8B4
:100C30000010C00740D1D8F8F80300F00F00A84218
:100C400007D988F8F853D8F8F80300F00F00A84245
:100C50004CD12068410707D5D8F80010E26821F48C
:100C6000E0511143C8F80010000708D5D8F800007B
:100C7000216920F4604040EAC100C8F8000000F09B
:100C80007DF8D8F8001043F2D042C1F30311C0F64A
:100C90000002515C40F2080220FA01F140F2040027
:100CA000C2F200000068C2F200021160FFF7FEFE0F
:100CB0000020BDE8F08100BF6068811E022907D2D4
:100CC00058F8081C89015CBF0120BDE8F08111E0E3
:100CD000012807D158F8081C89035CBF0120BDE832
:100CE000F08107E058F8081C890703D40120BDE80B
:100CF000F08100BFD8F8001021F003010843C8F8C4
:100D00000000FFF7A3FE064641F28837D8F800003E
:100D1000616800F00C00B0EB810F8CD0FFF796FEFD
:100D2000801BB842F2D90320BDE8F08140F20800F0
:100D300043F60801C2F20000C4F20201006809682B
:100D400043F2E042C1F38221C0F60002515CC84088
:100D50007047000040F2080043F60801C2F20000AC
:100D6000C4F202010068096843F2E042C1F3423173
:100D7000C0F60002515CC8407047000010B543F651
:100D80000404C4F202046068C0F3810142F200402E
:100D9000C0F2F400DFE801F04202081841F200203E
:100DA000C0F27A0010BD00BF216801F03F02216847
:100DB00023684902C3F3881116D4A1FB0001002364
:100DC000FFF7B9FA17E000BF216801F03F02216880
:100DD00023684902C3F3881114D4A1FB0001002346
:100DE000FFF7A9FA15E000BF41F20020C0F27A0037
:100DF0004843B0FBF2F021680222C1F3014102EB4B
:100E0000410109E041F20020C0F27A004843B0FB02
:100E1000F2F02168C1F30271B0FBF1F010BD0000E7
:100E2000002804BF012070472DE9F04182B004463C
:100E3000007843F60006C007C4F202060CD0B06882
:100E400000F00C00042840F089803068800303D54E
:100E50006068002800F050812078800723D5B068B2
:100E600010F00C0F11D0B06800F00C00082802D16F
:100E70007068400209D5B06800F00C000C2840F002
:100E80009F807068400200F19B803068800703D526
:100E9000E068012840F030813068216920F0F800D6
:100EA00040EAC10030602078000713D42078400762
:100EB0002AD4A569002D00F01A81B06800F00C005A
:100EC000082840F0AB80012D40F0E880012002B0FE
:100ED000BDE8F0816069002840F20000C4F24720BC
:100EE00000F088800121C0F8801EFFF7AFFD0546A5
:100EF000706F8007DAD4FFF7A9FD401B0228F7D9ED
:100F0000032002B0BDE8F081306C5FEAC0080AD46B
:100F100000200190306C40F080503064306C00F064
:100F200080500190019847F20007C4F2000738682A
:100F3000C00537D4386840F480703860FFF786FD0C
:100F4000054600BF3868C0052CD4FFF77FFD401B65
:100F50000228F7D9032002B0BDE8F081B06800F0A4
:100F60000C00082803D1706840023FF56EAFB068EE
:100F700000F00C000C2803D1706840023FF565AF0B
:100F80006068B0F5803F07D0B0F5A02F40F0CC806E
:100F9000306840F480203060306840F48030306049
:100FA000CCE000BFA068012805D0052858D1306FDB
:100FB00040F004003067306F40F0010030675AE0C5
:100FC000E068002800F09C800020C4F24720012146
:100FD0000160FFF73BFD0546306880073FF55CAFD9
:100FE000FFF734FD401B02284FF00300F4D902B094
:100FF000BDE8F0810021C0F8801EFFF727FD0546FF
:10100000706F80077FF552AFFFF720FD401B02286D
:10101000F6D9032002B0BDE8F08100BF0027C4F27A
:10102000472700203866FFF711FD022D05460BD13A
:101030003068800140F19480FFF708FD401B0228D2
:101040004FF00300F4D9D2E7306880014FD5FFF7A5
:10105000FDFC401B02284FF00300F5D9C7E700BF95
:10106000316F002821F001013167316F21F0040157
:10107000316700F09980FFF7E9FC054641F28837B7
:10108000306F800700F1A280FFF7E0FC401BB84200
:10109000F6D9032002B0BDE8F08100BF7068E169B5
:1010A00000F480028A4227D1216A00F03F028A427E
:1010B00022D147F6C071626A0140B1EB821F1BD199
:1010C000A16A4FF6FF73C903994300F44032A1F5BA
:1010D00080318A4210D1E16A00F07062B2EB016F98
:1010E0000AD1216B00F0E040B0EB017F04D1002079
:1010F00002B0BDE8F08100BF012002B0BDE8F08180
:101100000020C4F2472000210160FFF79FFC054644
:10111000306880077FF5C7AEFFF798FC401B0228B8
:101120004FF00300F4D962E73168002821F48031E0
:101130003160316821F48021316051D0FFF786FCA5
:10114000054600BF306880033FF586AEFFF77EFCA2
:10115000401B6428F6D9032002B0BDE8F08100BF2F
:1011600004F11C052FCD246B084340EA8210D903FB
:101170004FF6FF729143A1F5803140EA05600843C4
:1011800040EA0470706001203866FFF75FFC044697
:1011900030688001ABD4FFF759FC001B02284FF0E8
:1011A0000300F5D923E700BFFFF750FC054641F2E5
:1011B000883700BF306F800708D5FFF747FC401B1A
:1011C000B8424FF00300F5D911E700BFB8F1000FA6
:1011D0003FF56FAE306C20F08050306469E600BFA0
:1011E000FFF734FC054600BF306880037FF534AE5E
:1011F000FFF72CFC401B64284FF00300F4D9F6E6FF
:10120000411E0020B0EB116F1CBF012070474EF251
:101210001002CEF2000251604EF62351CEF20001D0
:10122000F0230B70072190601160704790F83C200C
:10123000012A4FF0020254D010B580F83D20026818
:10124000D2F804E0D2F808C00C682EF070032343F3
:1012500041F2FF74C4F20004A24253600EDC40F27B
:10126000FF73C4F200039A4216DCB2F1804F2BD018
:1012700040F20043C4F2000324E000BF40F2FF3319
:10128000C4F201039A4213DC41F60003C4F20003E6
:101290009A4219D0002313E040F60003C4F2000381
:1012A0009A4211D040F60043C4F200030AE000BFA6
:1012B00044F20003C4F201039A4205D040F2004315
:1012C000C4F201039A4204D149682CF08003194307
:1012D00091600121002280F83D1080F83C20BDE89B
:1012E0001040104670470000002804BF01207047DE
:1012F00010B5044690F83D0028B9002084F83C0061
:10130000204600F01FF8022084F83D002068211DCF
:1013100000F05EFB012084F8460084F83E0084F86B
:101320003F0084F8400084F8410084F8420084F8CB
:10133000430084F8440084F8450084F83D00002010
:1013400010BD0000006841F20001C4F200018842B3
:1013500018BF704781B00020009043F64000C4F2EF
:101360000200016841F010010160006800F0100007
:101370000090009801B07047002804BF012070471A
:1013800070B5044690F83D0028B9002084F83C0070
:10139000204600F06FF8022084F83D002068D4E970
:1013A00002C2D4F810E0C56804F1180625F00C0557
:1013B000C56005694ACE25F47C552943194331435C
:1013C000114341F400610161C16849F20C6291432B
:1013D000626941EA0C0141EA0E01114341F4004106
:1013E000C160416941F2004340F48062C4F20103EC
:1013F00021F440719A42416102D1FFF7ABFC01E058
:10140000FFF794FCD4E900531921A0FB01015A0015
:10141000DB0FFEF790FF48F21F51C5F2EB11A0FB66
:1014200001235A094FF69C73C1F6FF7302FB0300B8
:10143000322303EBC000A0FB01014FF4F87000EA77
:10144000111000EB0210C1F342110844A860286992
:10145000012120F480402861686920F02A00686139
:10146000E86840F40050E8600020206484F83D10F3
:1014700070BD00002DE9F04385B0006844F600051A
:10148000C4F20005A84203D005B0BDE8F08300BF58
:10149000002643F630000096C4F2020001696C4653
:1014A00041F48021016101694FF0020801F48021BB
:1014B00000910099009601684FF0030941F0020184
:1014C00001600168072701F0020100910099009670
:1014D000016841F0080101600068214600F0080041
:1014E000009000984FF48050009005F5DE30CDE973
:1014F0000186CDF80C900497FFF7CAF94FF44070BD
:10150000CDE9000805F5E2302146CDE902690497EE
:10151000FFF7BEF905B0BDE8F08300002DE9F0410A
:10152000044690F83D0001280ED10D4600294FF0E9
:10153000010000F0C4801646002A08BFBDE8F08113
:1015400094F83C00012803D10220BDE8F08100BFDF
:10155000012084F83C00002020641220984684F882
:101560003D00FFF773FA26856685A1680646B1F54A
:10157000805F02D12069002860D02F460025608D51
:1015800000285FD018F1010018D0B8F1000F37D152
:1015900021680BE035F8020B00276FF35F204860ED
:1015A000608D01386085608D00284CD00868000689
:1015B0006ED5002FEED017F8010BF0E7216802E09E
:1015C0000868000609D40868000606D40868000602
:1015D0005CBF08685FEA0060F2D51FB117F8010B25
:1015E00005E000BF35F8020B00276FF35F2048606D
:1015F000608D01386085608D0028E4D123E000BF54
:10160000216800BF0868000606D4FFF71FFA801B98
:1016100021684045F6D93BE017B117F8010B04E00B
:1016200035F8020B00276FF35F204860608D0138AA
:101630006085608D0028E5D105E000BF0027608D42
:1016400000289FD12168086840061ED4B8F1000F19
:101650001ED018F101000FD10868400615D40868A3
:1016600040065CBF08685FEA40600ED40868400628
:101670004FF00000F0D51CE0FFF7E8F9801B21686F
:10168000404505D808684006F6D5002011E000BFA7
:10169000C86820F08000C860C86820F02000C860DA
:1016A000C86820F48070C860486920F00100486173
:1016B0000320012184F83D10002184F83C10BDE88E
:1016C000F0810000FEE7000080B582B00020CDE987
:1016D000000040F2700047F20041C2F20000C4F284
:1016E00000010160FFF73EF820B1EFF3108072B601
:1016F000FEE700BF40F27000C2F20000694600221F
:10170000FFF708F820B1EFF3108072B6FEE700BFD4
:1017100002B080BD2DE9F04786B0002743F63000C7
:10172000CDE904770097C4F20200016841F6000A8F
:1017300041F0040101600168C4F2020A01F00401F1
:101740000091009900970168AAF5A05641F0800128
:1017500001600168002201F080010091009900976A
:10176000016844F2810841F001010160016801F063
:101770000101009100990097016841F002010160A8
:10178000016801F00201009100990097016841F0A1
:1017900008010160016801F00801009100990097BB
:1017A000016841F040010160006844F2810100F0ED
:1017B0004000009000983046FFF742F95046402123
:1017C00000224FF04009FFF73BF94FF40050019021
:1017D0004FF4881001ADCDE90207AAF580502946E3
:1017E000FFF756F8012430462946CDF80480CDE9AC
:1017F00002470497FFF74CF850462946CDE901947B
:10180000CDE90377FFF744F88020CDE90107504682
:1018100029460397FFF73CF84FF4E8500190022067
:10182000CDE90207032004900A20AAF5C0540590D0
:1018300020462946FFF72CF84FF40070CDE9010748
:10184000204629460397FFF723F82820002100228D
:10185000FFF77EF92820FFF769F906B0BDE8F087A9
:1018600080B582B040F2840041F200020021C2F251
:101870000000C4F200024FF6FF73CDE90011C0E989
:101880000021C0E902138161FFF72EFD20B1EFF3C3
:10189000108072B6FEE700BF40F28400C2F2000082
:1018A0006946FFF7C3FC28B1EFF3108072B600BFA2
:1018B000FEE700BF02B080BD80B540F2CC0044F628
:1018C0000001C2F20000C4F2000100234FF00C0C32
:1018D0004FF4E13280E80E00C0E90333C0E905C3EC
:1018E000C0E90733FFF748FD002808BF80BDEFF3CC
:1018F000108072B6FEE70000FEE70000FEE7000081
:101900007047000070470000FFF7A6B8B0B594B06C
:10191000002443F640000C94CDE90A44CDE9084484
:101920000694CDE90444CDE902440194C4F20200D6
:101930000168012241F0805101600068022500F039
:1019400080500190019847F200000194C4F2000019
:10195000016862F38F310160006800F4404001903B
:10196000019810200B9008200F906420CDE91005FD
:1019700007A807950A92CDE90D54CDE91255FFF756
:101980004FFA28B1EFF3108072B600BFFEE700BF38
:101990000F20CDE902054FF4A05005904FF4805080
:1019A000069002A803210494FFF70EF920B1EFF38B
:1019B000108072B6FEE700BF14B0B0BD4EF688507E
:1019C000CEF20000016841F4700101607047000030
:1019D00010B540F6FF3E0368C4F2000E40F2004C22
:1019E0007045C4F2010C27DCB0F1804F31D040F2D9
:1019F0000042C4F2000290422BD040F60002C4F232
:101A00000002904225D041F6FF72C4F200029042DB
:101A100029DC70453CDCB0F1804F5FD040F20042E1
:101A2000C4F20002904259D040F60002C4F2000213
:101A3000904253D056E000BF40F60042C4F200028C
:101A4000904206D0604504D00022C4F201029042C8
:101A5000D9D14A6823F07003134341F6FF72C4F2F0
:101A600000029042D5DD43F6FF72C4F201029042BB
:101A700022DC42F20002C4F2000290422ED0002288
:101A8000C4F20102904229D0604527D02AE000BF6D
:101A900040F60042C4F2000290421FD041F600021C
:101AA000C4F20002904219D041F60042C4F2000292
:101AB000904213D016E000BF44F20002C4F20102CB
:101AC00090420BD044F60002C4F20102904205D0CD
:101AD00044F20042C4F20102904203D1CA6823F4E6
:101AE0004073134323F080024B69D1F800E08C6807
:101AF0001A430260C46240F48062C0F828E0624584
:101B000004BF096901630121416110BDFEE70000C6
:101B1000A4B0FEF7AFFFFFF7F9FEFFF7FBFDFFF7FD
:101B2000D3FDFFF79DFEFFF7C7FE40F20040C4F271
:101B300002008021FEF77CFF40F20C00C2F20000A0
:101B40000121017047F27340C0F20A00CDF837005E
:101B500047F22040C7F265300D9046F67410C6F289
:101B60006E700C9047F25020C6F669600B900BA87F
:101B700000F0DEF940F27004C2F200042046FEF7E5
:101B8000F1FD20460021FEF747FE204600210022FD
:101B9000FF23FEF72DFE4FF4C870FEF79DFB40F2C9
:101BA00010189FEDB30BC2F200089FEDB31BC8F8ED
:101BB000000051EC100B9FEDB20BCDE9091051EC78
:101BC000110B9FEDB11BCDE9071051EC100BCDE9C6
:101BD000051051EC110B9FEDAE0B9FEDAF1B9FED70
:101BE000A28B9FEDC5DB9FEDC6EB9FEDC7FB9FED85
:101BF000C89B9FEDC9AB9FEDCABB9FEDCBCBCDE999
:101C0000031051EC100B5BEC11AB6FF00309CDE945
:101C1000011000BFB0EE480AF0EE680A00F0B0F91B
:101C2000DDE9093251EC100B01F088F9DDE90732EA
:101C300000F068FE54EC185BDDE9053206460F46FD
:101C40002846214601F07AF941EC100B00F098F992
:101C5000DDE9033251EC100B01F070F932463B46DE
:101C600000F050FEDDE9013206460F4628462146C7
:101C700001F064F941EC100B00F082F951EC100B0B
:101C800052465B4601F05AF932463B4600F03AFEB6
:101C90009FED830B06460F4653EC102B284621463A
:101CA00001F04CF941EC100B00F06AF951EC100B0B
:101CB0009FED7D0B53EC102B01F040F932463B4673
:101CC00000F020FE9FED7A0B06460F4653EC102BDA
:101CD0002846214601F032F941EC100B00F050F992
:101CE00051EC100B9FED740B53EC102B01F026F907
:101CF00032463B4600F006FE9FED710B06460F464E
:101D000053EC102B2846214601F018F941EC100B3A
:101D100000F036F951EC100B9FED6B0B53EC102BD0
:101D200001F00CF932463B4600F0ECFD9FED680BEC
:101D300006460F4653EC102B2846214601F0FEF8CC
:101D400041EC100B00F01CF951EC100B9FED620BF5
:101D500053EC102B01F0F2F832463B4600F0D2FD76
:101D60009FED5F0B06460F4653EC102B284621468D
:101D700001F0E4F841EC100B00F002F951EC100B0B
:101D80009FED590B53EC102B01F0D8F832463B462F
:101D900000F0B8FD9FED560B06460F4653EC102B96
:101DA0002846214601F0CAF841EC100B00F0E8F893
:101DB00051EC100B53EC1D2B01F0C0F832463B46A2
:101DC00000F0A0FD06460F4653EC1E2B2846214688
:101DD00001F0B4F841EC100B00F0D2F851EC100B0C
:101DE00053EC1F2B01F0AAF832463B4600F08AFD67
:101DF00053EC192B01F0A2F853EC1A2B00F082FDE2
:101E000000F04EFDD8F8001053EC1B2B49444860FD
:101E10002846214600F076FD53EC1C2B41EC180BB4
:101E200009F1040901F0A5FA00287FF4F3AE40F2AD
:101E300070040025C2F20004D8F80000002100EB75
:101E4000850090ED000A2046BCEEC00A10EE103A64
:101E50000022FEF7CDFC681CB0F1640518BF0546F2
:101E6000EAE700BF00BF00BF1F85EB51B81E194055
:101E70006C77FB702FF0D93F000000000000E03FBE
:101E80000000000000000840276A180F630EA7BF7B
:101E90000000000000001440A17F63F6B799903F56
:101EA0000000000000001C40A95DED9272F080BFB0
:101EB0000000000000002240EA41F9F0907E743FEB
:101EC0000000000000002640557E800954706BBF62
:101ED0000000000000002A40CFE584B640A5633F23
:101EE0000000000000002E40AD54CD270E835DBFE2
:101EF000000000000000314098A1A1A5F6F9563F6E
:101F000000000000000033404E4EA158D46452BF80
:101F10000000000000408F400000000000309140B1
:101F20003355302AA913B03F1F85EB51B81E294005
:101F300010B50446FEF777FA82B240F2CC00C2F246
:101F4000000021466423BDE81040FFF7E7BA03B460
:101F500001984100009850EAC12018BF04204A0DA2
:101F600018BF40F0010040F2FF72B2EB515F08BFB2
:101F700040F00200012808BF052002B070470000B1
:101F800010B52F499FED2C1B2DED020B84B0059849
:101F900020F000408842DCBF00209DED040B32DDC4
:101FA0002849884209D1049840B94FF00100FEF752
:101FB000DAFA00F03DFC06B010BD05DB9DED040B28
:101FC00000F02AFC06B010BD68469DED040B00F041
:101FD0003BF810F0030011D0012818D09DED021B32
:101FE0009DED000B02281AD000F04AFA51EC100BBC
:101FF00000F04AFC06B041EC100B10BD9DED021B39
:102000009DED000B012000F06FFB06B010BD9DEDB3
:10201000021B9DED000B00F033FA06B010BD01204D
:1020200000F062FB51EC100B00F02EFC06B041EC0E
:10203000100B10BD000000000000000000000000B8
:10204000FB21E93F0000F07F2DE9F14F04462DED23
:10205000020B2DED088B8AB09FEDE70B80ED020B94
:10206000139EE74826F0004585420ADC9DED120BE1
:10207000002084ED000B0AB0BDEC088B03B0BDE876
:10208000F08FE0489FEDE0AB9FEDE1BBA84247DD5C
:10209000E14F9FEDE39B9FEDE48B9DED120B53EC25
:1020A0001A2B51EC100B002E1CDD01F051F841EC05
:1020B000100BBD4208D053EC1B2B51EC100B01F060
:1020C00047F8C4E900010BE053EC192B51EC100B5D
:1020D00001F03EF853EC182B01F03AF8C4E9000186
:1020E0000120C8E700F00EFC41EC100BBD4208D007
:1020F00053EC1B2B51EC100B00F004FCC4E9000165
:102100000BE053EC192B51EC100B00F0FBFB53ECE4
:10211000182B00F0F7FBC4E900014FF0FF30AAE7ED
:10212000C348A84279DB9DED120B51EC100B00F077
:102130009FFB41EC180B9FEDC00B53EC102B00F0F4
:10214000FDFE9FEDBF1B53EC112B00F0DBFB00F0FD
:1021500023FE074600F04FFE41EC190B53EC1A2BFF
:1021600000F0ECFE53EC182B00F0E6FF41EC180BEE
:1021700053EC1B2B51EC190B00F0E0FEDFF8C8A26A
:1021800041EC100B4FEA15580125FA4453EC102B83
:1021900051EC180B00F0DCFF032DC4E900013DD029
:1021A000C1F30A5005EB4511A8EB0000113981423B
:1021B00034DA0AEB051BB0EE48AA9BED000BF0EEFB
:1021C00068AA53EC102B51EC190B00F0B7FE41EC50
:1021D0001B0B51EC1A0B53EC1B2B00F0B9FF41EC1D
:1021E000180B51EC1A0B53EC182B00F0B1FF53EC09
:1021F0001B2B00F0ADFF9BED020B41EC1A0B53ECD7
:10220000102B51EC190B00F099FE53EC1A2B00F037
:102210009FFF41EC100B6D1CB8E70EE0002EA8BF2D
:102220003846BFF628AF94ED000B51EC100B00F0D0
:102230002BFBC4E9000178421DE7C6F3130040F40C
:10224000801EC6F30A50A0F2F530471100F01F05BA
:10225000C5F12000DDF848B00890002006900790F6
:102260000520EC467949002D07EB0002794408BFB0
:1022700051F8221009D051F8223001EB8201AB4015
:102280004A68089922FA01F11943A1FB0E26A1FB25
:102290000B131A449A4234BF0123002303EB0608B0
:1022A0000CEB8003D3E901A60E448E4234BF01211A
:1022B000002192448A4411B1924502D903E092452B
:1022C00001D2012100E00021C3E901A641444CF8FC
:1022D0002010011EA0F10100C4DC029800F10050A2
:1022E000850F0298DDE903678000DDF8148000F0B7
:1022F00082FD41EC1A0B304600F094FD9FED541B1B
:1023000053EC112B00F01AFE41EC1B0B384600F089
:1023100089FD9FED511B53EC112B00F00FFE41EC9A
:10232000180B404600F07EFD9FED4D1B53EC112B2A
:1023300000F004FE41EC190B51EC180B53EC192B77
:1023400000F0E0FA53EC1B2B00F0DCFA53EC1A2BF4
:1023500000F0D8FACDE90801002008909DED080BA7
:1023600053EC1A2B51EC100B00F0F2FE53EC1B2B2C
:1023700000F0EEFE53EC182B00F0EAFE53EC192BA4
:1023800000F0DAFE9FED381B53EC112B00F0D6FD68
:102390009FED370B41EC180B53EC102B9DED080B08
:1023A00051EC100B00F0CAFD53EC182B00F0AAFA08
:1023B0009FED310B41EC180B53EC102B9DED080BEE
:1023C00051EC100B00F0BAFD53EC182B00F09AFA08
:1023D00041EC100B139810F0004F06D06D4251ECF9
:1023E000100B00F051FA41EC100B284684ED000B65
:1023F00041E60000000000000000000000000000B6
:10240000FB21E93F7CD9024000004054FB21F93F09
:102410003163621A61B4D03DFB21F93F0000000036
:102420000000601A61B4D03D7370032E8A19A33B7B
:10243000FB2139410000000083C8C96D305FE43FD3
:10244000000000000000E03F4A1200009811000068
:10245000000000000000103E000000000000103CE2
:10246000000000000000103A182D4454FB21F93DF3
:102470003326A611460B113C00000054FB21F93D08
:1024800010B52DED040B2DED088B82B0B0EE419A06
:10249000F0EE619A0B9820F000449FED4BABB4F145
:1024A000795F11DA9DED0A0B51EC100B00F074FC12
:1024B000002801BFB0EE4A0AF0EE6A0A02B0BDEC95
:1024C000088B04BF04B010BD9DED0A0B53EC102B1C
:1024D00051EC100B00F032FD41EC180B3C4806218A
:1024E000B0EE480AF0EE680A784400F081F853EC48
:1024F000182B51EC100B00F021FD9DED0A0B41EC67
:102500001B0B53EC192B51EC100B00F017FD41EC99
:10251000190B53EC1B2B51EC180B00F00FFD53EC77
:10252000192B00F015FE9FED2C0B41EC190B53EC11
:10253000102B51EC180B00F001FD41EC100B28485A
:10254000844210DA53EC192B51EC100B00F000FE12
:1025500053EC1A2B00F0F0FD41EC100B02B0BDEC77
:10256000088B04B010BD1F48A042BCBF9FED1E1BCE
:102570008DED001B06DBA4F50010019000200090FB
:102580009DED001B51EC100B53EC112B00F0E0FD06
:102590009DED000B41EC180B53EC102B51EC1A0B7A
:1025A00000F0D6FD41EC1A0B53EC192B51EC180B33
:1025B00000F0CEFD53EC1A2B00F0BEFD41EC100BE9
:1025C000CCE7000000000000000000000000F03F29
:1025D000BC0E000000000000000000000000E03F12
:1025E0003333D33F0000E93F000000000000D23F3A
:1025F00070B504462DED028B4D1E00EBC500B0EE0C
:10260000408AF0EE608A90ED000B35F0060017D09E
:1026100053EC182B51EC100B00F090FC41EC100B1C
:102620006D1E04EBC50090ED001B51EC100B53EC3C
:10263000112B00F067F941EC100B35F00600E7D1E3
:10264000022D36D0042D1CD0062D1CBFBDEC028BF4
:1026500070BD53EC182B51EC100B00F06FFC94ED97
:102660000A1B53EC112B00F04DF953EC182B00F022
:1026700065FC94ED081B53EC112B00F043F941EC81
:10268000100B53EC182B51EC100B00F057FC94ED91
:10269000061B53EC112B00F035F953EC182B00F00E
:1026A0004DFC94ED040B53EC102B00F02BF941EC96
:1026B000100B53EC182B51EC100B00F03FFC94ED79
:1026C000021B53EC112B00F01DF953EC182B00F0FA
:1026D00035FC94ED001B53EC112B00F013F9BDEC0D
:1026E000028B41EC100B70BD31B504462DED040B8F
:1026F0002DED0A8BB0EE41BAF0EE61BA0B989DED6C
:102700000A0B20F00040B0F1795F0DDA51EC100BAC
:10271000FFF71DFC042808BF00F09AF89DED0A0B96
:10272000BDEC0A8B05B030BD53EC102B51EC100BF7
:1027300000F004FC41EC180B9DED0A0B53EC182B38
:1027400051EC100B00F0FAFB41EC190B2C48B0EEE9
:10275000480AF0EE680A05217844FFF749FF9FED2B
:102760002ACBB0EE40AAF0EE60AA9CB353EC1C2B2F
:1027700051EC190B00F0E2FB41EC1C0B53EC1A2B53
:1027800051EC190B00F0DAFB9FED210B41EC190B1A
:1027900053EC102B51EC1B0B00F0D0FB53EC192B1E
:1027A00000F0D6FC53EC182B00F0C8FB53EC1B2BAD
:1027B00000F0CEFC53EC1C2B00F0CAFC9DED0A1B74
:1027C00053EC112B00F0B8FCBDEC0A8B05B041ECCA
:1027D000100B30BDFFE753EC1A2B51EC180B00F037
:1027E000ADFB53EC1C2B00F08DF853EC192B00F0D3
:1027F000A5FB9DED0A1B53EC112B00F083F8E3E7DA
:102800004C0D000000000000495555555555C5BFF9
:10281000000000000000E03F10B553EC102B51EC1D
:10282000100B00F06FF841EC100B10BD0000000021
:102830009FED050B10B553EC102B51EC100B00F075
:1028400015F941EC100B10BD000000000000000065
:102850009FED050B10B553EC102B51EC100B00F055
:102860006DFB41EC100B10BD0000000000000010DB
:1028700082B0CDE9000121F0004001909DED000BF8
:1028800002B051EC100B704781F00041704780F0AE
:102890000040704721F00041704720F00040704731
:1028A00021F0004201F00043A2F16052B2F5801F16
:1028B00028BFD2F17F6C0BD95FEA001C43EAC20249
:1028C00042EB507018BF704728BF20F001007047DE
:1028D000B2F5801FBCBF184670474FEA410C1CF58B
:1028E000001F02D2084600F058BD70B500F0D0FBC2
:1028F00000000089FFF7F6BF4FF00040A0F5800010
:102900007047000010B591EA030F48BF83F0004301
:1029100000F12684841A71EB030C05D2121943EBE3
:102920000C03001B61EB0C014FEA1154A4EB135C88
:10293000DFF81CE11EEA430F18BF9EEA445F00F077
:10294000748021EA045123EA0E0343F48013DCF17E
:10295000200E32D322FA0CFE10EB0E0023FA0CFEEE
:1029600041EB0E01CCF1200E03FA0EFE10EB0E002F
:10297000CCF1200E51F10001B1F5801F32D201EBF4
:10298000045112FA0EF2BDE8104058BF7047401CC7
:1029900038BF5FEA420218BF7047002814BF20F01A
:1029A000010041F100014FEA410313F5001F38BF58
:1029B0007047A1F1C04100F0B9BB012A43EB03020B
:1029C000ACF1200CDCF11F0E32BF4FF0000E23FAE9
:1029D0000CF310EB030041EB0451B4EB115FD0D0CA
:1029E000A1EB045101F58011490801EB04515FEAA4
:1029F00030000ED350F1000038BF12FA0EFE08D19D
:102A0000BDE81040C9E7401C38BF5FEA4202CAD1A6
:102A1000C3E7BDE810404FEA410313F5001F38BF7C
:102A20007047A1F1C04100F081BB9EEA445F08D02D
:102A300011EA5E0FBDE8104004BF01F00041002024
:102A40007047BDE8104070B500F022FB64FBBE3E4D
:102A50000000E0FF491058BFC1F140415B1058BF72
:102A6000C3F140438B42EFF3008070472DE9C04132
:102A700030B4DFF8A4C23CEA111418BF3CEA1314C6
:102A800000F0ED801CEA111481EA030544EAD574D4
:102A900018BF1CEA131500F0C880A4EB050404F16C
:102AA0007F7404F500344FF0004545EAC12145EA42
:102AB000C32341EA505143EA52534FEAC0204FEA40
:102AC000C222994208BF904200F09D804FEA1365F0
:102AD0000FF24416765D4FEA134506FB05F7C7F182
:102AE000807706FB07F74FEAD737A7FB03687642E4
:102AF000A7FB06CEC8F5803838BFA8F1010807FB50
:102B000008E6A6FB028C4FF0000EE6FB03CEDCF1DC
:102B1000000CCEF1004E38BFAEF1010EA6FB0C58F2
:102B20004FF00007E6FB0E87A1FB08C6A0FB07CE0F
:102B300016EB0E064FF0000545F10005E1FB0765B9
:102B400015F1E04E7EBFA4F580345FEA46066D4184
:102B500016F1800745F100054FEA172747EA056798
:102B60004FEA15254FEA0666A6F1DE46B6F1805F0C
:102B700020D9384605EBC47124F0010C01EB0C118F
:102B8000BCF1FE6F02D8F0BCBDE8008124425CBFFE
:102B900001F5801E9EEAC47F02D4F0BCBDE800812E
:102BA000244200F13980A1F1C041F0BCBDE80041F0
:102BB00000F0BCBA4FEAD02040EA41504FEAD121A0
:102BC0004FEAD22242EA43524FEAD323A7FB0286BE
:102BD00007FB036605FB02661EEA0E0F58BFA6EB55
:102BE0000056B6EB00564FEA520E4EEAC37E18EB83
:102BF0000E0E56EB530EBCD518EB02085E417F1C3F
:102C000055F10005B5E74FF480154FF000074FF080
:102C100000064FF00008ACE701F1C04101F00041AF
:102C20004FF00000F0BCBDE800810CEA131511EA7A
:102C30000C1F00D00CE013EA0C1F00F026804FF0B0
:102C4000000081EA030101F00041F0BCBDE8008111
:102C5000F0BCBDE8004181EA030100F067BAF0BCB6
:102C6000BDE8004170B500F013FA00BF097EFC3EDC
:102C700000F007B84FF0000081EA030101F00041C5
:102C8000704781EA030100F051BAF0BCBDE8004191
:102C900022494FF000007047FFFDFBF9F7F5F4F211
:102CA000F0EEEDEBE9E8E6E4E3E1E0DEDDDBDAD8E7
:102CB000D7D5D4D3D1D0CFCDCCCBCAC8C7C6C5C445
:102CC000C2C1C0BFBEBDBCBBBAB9B8B7B6B5B4B35C
:102CD000B2B1B0AFAEADACABAAA9A8A8A7A6A5A447
:102CE000A3A3A2A1A09F9F9E9D9C9C9B9A9999980B
:102CF0009797969595949393929191908F8F8E8EAE
:102D00008D8C8C8B8B8A898988888787868585843A
:102D100084838382828181800000FF070000F87F26
:102D200051EA030C17D41CF5801F58BFBCF5801F57
:102D300000F10680994218BF704708BF9042704763
:102D400007D711F5801F58BF13F5801F19D499427A
:102D50007047894270471CF5801F08D5BCF5801F5D
:102D6000F7D58B4218BF704708BF824270474FF4B7
:102D7000001C1CEB410F38BF1CEB430F01D28B42F0
:102D8000704770B500F084F9922449004FF000516B
:102D90004FF08053FFF75EBE4FEA41034FEA5353B3
:102DA000A3F58063D3F11E03C8BFD3F1210C0CDD62
:102DB0004FF0004242EAC12242EA505232FA03FC8A
:102DC0008CEAE17CACEBE1707047102BC4BF0020B3
:102DD000704703F5787CBCF1FF3F04D06FF00042F0
:102DE00082EA2100704770B500F052F949922480C0
:102DF00000207047F2E710F0004248BF4042B0FAAE
:102E000080F310FA03F10AD0C3F11D0303F58063C8
:102E100002EB03524FEA415002EBD12170474FF0D1
:102E200000007047B0FA80F310FA03F10AD0C3F142
:102E30001D0303F580634FEA03524FEA415002EB52
:102E4000D12170474FF000007047000051EA030C99
:102E500017D41CF5801F58BFBCF5801F00F10680F9
:102E6000994218BF704708BF9042704707D711F5C5
:102E7000801F58BF13F5801F19D4994270478942AB
:102E800070471CF5801F08D5BCF5801FF7D58B4215
:102E900018BF704708BF824270474FF4001C1CEBFC
:102EA000410F38BF1CEB430F01D28B42704770B506
:102EB00000F0EEF8922449004FF080514FF000539B
:102EC000FFF7C8BD51EA030C17D41CF5801F58BF8B
:102ED000BCF5801F00F10680994218BF704708BFFB
:102EE0009042704707D711F5801F58BF13F5801F18
:102EF00019D499427047894270471CF5801F08D544
:102F0000BCF5801FF7D58B4218BF704708BF8242BF
:102F100070474FF4001C1CEB410F38BF1CEB430FF4
:102F200001D28B42704770B500F0B2F8922449008C
:102F30004FF000514FF08053FFF78CBD70B5DFF8B4
:102F400048C11CEA111E1EBF1CEA13159EEA0C0F95
:102F500095EA0C0F00F06F8081EA03044EEAD47EFC
:102F6000AE4421EA4C1123EA4C1341F4801143F49E
:102F70008013AEF17F7EA1FB024CA0FB03653619E6
:102F800055EB0C05A1FB034C4CF10003A0FB021C0C
:102F900016EB0C06654153F10003094218BF46F0D9
:102FA000010613F4007F0BD14FEA03314FEA0530DD
:102FB00041EA155140EA165034036FF003020AE06B
:102FC0004FEAC3214FEAC52041EA555140EA565025
:102FD000F4026FF0020202EB2E4201EB025585EA89
:102FE000CE710AD05FEA440C18BF24F0004450F1BF
:102FF000000041F1000120EAD47040F2FE7C6245FD
:1030000000D270BDA84214BF4FF080444FF040443E
:10301000002E08BF0024BEF1806FA8BFA1F1C041FF
:10302000BDE8704080F2828001F1C04101F00041B2
:103030004FF0000070470CEA13159EEA0C0F18BF02
:1030400095EA0C0F06D081EA030E4FF000000EF057
:10305000004170BD00F01CF88900013E00F007B887
:1030600000F009B84FEA430C5FEA5C5C08D081EAE3
:10307000030100F05BB84FEA410C5FEA5C5CF6D1FB
:1030800002494FF0000070470000FF070000F87F82
:103090000EF1020E2EF0030E5EF8046B364205D4DC
:1030A000012A43EB030515F5001F12D8012841EB57
:1030B000010C1CF5001F0CD80ED14FEAD17C0CEB93
:1030C0004C0C0CF1020C15F5001F08BF4CEBD37C27
:1030D00004E04FF0080C01E04FEAD37C0CEB4C0508
:1030E00026FA05F606F00706B6F1040C06D20EEB3A
:1030F000860CBDE870404CF0010C6047DFE80CF036
:10310000090B02024FF00041A1F500214FF0000031
:1031100070BD19461046012851EB010418BFD4F5C3
:10312000001484BF002001F0004170BD0808A0F524
:1031300000114FEA3101704710B591EA030F81F099
:1031400000413FF5E7AB83F0004300F009B8000011
:1031500010B591EA030F48BF83F000433FF5DAABA7
:10316000841A71EB030C07D28CF0004C121943EB5C
:103170000C03001B61EB0C014FEA1154A4EB135C30
:10318000DFF8A4E11EEA430F18BF9EEA445F00F097
:10319000B48021EA045123EA6E035242C3EB6E036A
:1031A00038BF5B1EDCF1200E25D322FA0CFE10EB9B
:1031B0000E0043FA0CFE41EB0E01CCF1200E03FA97
:1031C0000EFE10EB0E00CCF1200E51F1000129D4BF
:1031D00001EB045112FA0EF2BDE8104058BF7047DF
:1031E000401C1CBFB2F1004F704700280CBF491CA7
:1031F00020F00100704712EB020E43EB030218BFF0
:103200004FF0010E4EEA4202ACF1200CDCF11E0E32
:1032100056D943FA0CFE10EB0E00CCF11E0E51F104
:10322000FF31D5D50EF1010E12FA0EFE404141EBF1
:10323000010101EB445C5FEA5C5C10D901EB0451D5
:1032400010EBDE7038BFBEF1004FBDE8104018BF74
:10325000704700280CBF491C20F00100704734D291
:103260004FEAD42C24F4006411F500111BD0B1FAFC
:1032700081F20B3AA41AA41ED2F12003914030FA35
:1032800003F31943904001EBCC7101EB0451002C86
:10329000BDE81040A8BF704701F1C04101F00041F6
:1032A0004FF000007047B0FA80F310FA03F102D13A
:1032B000BDE810407047E41A173C4805C90AE2E728
:1032C00001EB0451BDE81040704749104FEA30004F
:1032D00001EB0451BDE8104002E04FF000017047DF
:1032E0004A0008BF0042F8D0B2F5001F28BF70475F
:1032F00001F000414FF0000070479EEA445F07D0A4
:1033000011EA5E0FBDE8104004BF002100207047A5
:10331000BDE8104070B5FFF7BBFE00BF40DFF63ED2
:10332000104683F0004170470000E0FF10B5FFF742
:10333000F7FC0CBF0120002010BD10B5FFF7F0FC1A
:1033400014BF0120002010BD10B5FFF77FFD8CBF1A
:103350000120002010BD10B5FFF778FD2CBF012023
:10336000002010BD10B5FFF7ADFD94BF0120002077
:1033700010BD10B5FFF7A6FD34BF0120002010BD21
:10338000F1EE100A4FF6FF71C0F2C03120EA0100E1
:1033900040F04070E1EE100A7047FF2141EAD05042
:1033A000C0057047000000004C5555555555A53FC8
:1033B0007751C1166CC156BF9015CB19A001FA3ECA
:1033C000AD529C804F7E92BEC4B1B4BD9EEE213EF4
:1033D000D43888BEE9FAA8BD00004054FB21F93F6B
:1033E0003163621A61B4D03D0000601A61B4D03D0F
:1033F0007370032E8A19A33B0000002E8A19A33B89
:10340000C14920259A837B3900000000000000009C
:103410006E83F9A22915444ED15727FCC0DD34F53F
:10342000999562DB4190433CAB6351FE61C5BBDEC5
:103430003A6E24B7E0D24D42EA2E49061C92D109D9
:103440001CEB1DFE3EA729B1F53582E88444BB2E56
:1034500026709CE9417E5FB439D69139F4395383A3
:103460008B5F849C3B28F9BDFF97F81F0F9805DE02
:103470008B112FEF1F6D0A5ACF7E366DB709CB2700
:10348000663F464F2DEA5F9EC7BA27757BF1E5EB95
:10349000F739073DEA92528AB15FFB6B085D8D1FD9
:1034A0004630035600000000A6F810111111813FAC
:1034B000D561C119A0012ABF7DFEB157E31DC73EEA
:1034C000EB9C2B8AE6E55ABE7CD5CF5A3AD9E53D2E
:1034D00000000000000000000102030406070809C4
:1034E000000000000102030408350008000000206D
:1034F0001000000028020008183500081000002005
:103500000807000048020008010000001000000049
:083510000024F400010000009A
:04000005080001C529
:00000001FF
